:1000000058C0000073C0000071C000006FC0000045
:100010006DC000006BC0000069C0000067C0000038
:1000200065C0000063C0000061C000005FC0000048
:100030005DC0000080C0000059C0000057C0000033
:1000400055C0000053C0000051C000004FC0000068
:100050004DC000004BC0000049C0000047C0000078
:1000600045C0000043C0000041C000003FC0000088
:100070003DC000003BC0000039C0000037C0000098
:1000800035C0000033C0000031C000003D01410117
:1000900045016E012F02FF019701CF016702850222
:1000A000F802AD02F802B502BF02ED02E102C90298
:1000B000D50211241FBECFEFD0E4DEBFCDBF11E0CB
:1000C000A0E0B1E0E2ECF8E000E00BBF02C0079076
:1000D0000D92AC30B107D9F721E0ACE0B1E001C03E
:1000E0001D92A032B207E1F77FD3E9C389CF8BE03D
:1000F000809381008DE790E0909389008093880041
:1001000082E080936F0010928500109284008091AD
:10011000080190910901A0910A01B0910B0180930F
:100120000C0190930D01A0930E01B0930F018FB7B6
:1001300080688FBF08951F920F920FB60F921124FF
:100140008F939F93AF93BF9380910C0190910D017A
:10015000A0910E01B0910F010197A109B1098093FF
:100160000C0190930D01A0930E01B0930F01892B08
:100170008A2B8B2B99F481E08093100180910801E8
:1001800090910901A0910A01B0910B0180930C019B
:1001900090930D01A0930E01B0930F01BF91AF9109
:1001A0009F918F910F900FBE0F901F9018956093A5
:1001B00008017093090180930A0190930B016093E9
:1001C0000C0170930D0180930E0190930F0108951F
:1001D00080911F0190E0FC01E050FF4F209116013B
:1001E000208320911401223021F03CEF320F323075
:1001F00028F4FC01E050FF4F11820895233019F0DC
:100200002650223020F4FC01E150FF4F1082089567
:10021000049904C0809112018130E1F4109213011D
:1002200010921E01109214012B982C98109211011B
:100230001092120180E180931A0180931B0193E0D8
:1002400090931F0180931601C3DFE0E0F1E088E3A3
:1002500080838783089589E08093150180931C0132
:100260000895E09114018E2F90E08B30910508F0F5
:100270006AC1FC01EA5BFF4F19C381E0809314015E
:10028000089582E08093140170C180911F01823033
:1002900008F06BC120911A0190911601291304C036
:1002A00083E0809314016BC1622F70E0492F50E00E
:1002B000440F551F6417750721F486E080931401DD
:1002C00068C19695291304C087E0809314016DC11D
:1002D00081114BC189E080931401089580911F0121
:1002E000863008F44CC1873020F088E080931401F8
:1002F000089590911B0180911601981304C082E02B
:100300008093140132C1492F50E0282F30E0220F92
:10031000331F4217530721F484E0809314015DC119
:10032000869598132CC185E0809314014AC1809171
:10033000160188232CF090911F01963008F429C1F2
:1003400090911F01973020F088E080931401089568
:10035000963021F087E08093140127C190911B0112
:10036000492F50E0282F30E0B901660F771F660F44
:10037000771F4617570721F484E0809314012DC19D
:10038000220F331F4217530721F485E08093140195
:1003900018C18913FEC084E0809314011EC18091AE
:1003A0001601823028F090911F01963008F4FDC0AC
:1003B00090911F01973020F088E0809314010895F8
:1003C000963021F086E080931401E3C090911B01E8
:1003D000282F26952695291304C085E080931401C3
:1003E000F0C0282F2695921304C084E08093140156
:1003F000F4C08913DAC084E080931401EEC08091C8
:100400001601823028F090911F01923008F0D9C077
:1004100090911F01911104C089E080931401089507
:10042000913021F084E080931401D7C090911A019B
:10043000282F26952695291304C087E08093140160
:10044000B4C0282F2695921304C086E0809314012F
:10045000A0C08913B6C086E0809314019AC0809131
:10046000160188232CF090911F01923008F0B5C03E
:1004700090911F01911104C089E0809314010895A7
:10048000913021F085E0809314019BC090911A0176
:10049000492F50E0282F30E0B901660F771F660F13
:1004A000771F4617570721F486E08093140171C027
:1004B000220F331F4217530721F487E08093140162
:1004C00074C089138AC086E08093140162C0809151
:1004D00011018F5F8093110190911C0191509093B5
:1004E0001C01833020F488E0809314010895911159
:1004F00006C02B9AB0DE8AE080931401089581E053
:1005000080931201109211010895809111018F5F63
:1005100080931101909115019150909315018330B2
:1005200020F489E0809314010895911106C02C9A5B
:1005300092DE8AE080931401089581E08093120195
:100540001092110108958E2F90E08830910508F0E7
:100550004FC0FC01EF5AFF4FA9C183E080931F01F8
:1005600080E18093160134CE089580911F0181505F
:1005700080931F0180E1809316012ACE0895809117
:100580001F018F5F80931F0180E18093160120CEB1
:10059000089580911F018F5F80931F018091160144
:1005A000880F8093160114CE089580911F018F5FEC
:1005B00080931F018091160186958093160108CEC5
:1005C000089580911F01815080931F018091160131
:1005D000869580931601FCCD089580911F0181506E
:1005E00080931F0180911601880F80931601F0CD32
:1005F000089584B18F6184B981B18F6181B9089503
:1006000080911301823059F128F4882341F0813020
:10061000D1F037C0833031F1843081F132C000999C
:1006200002C0019B4CC0009B06C0019904C081E040
:10063000809313010895019B42C0009940C083E05C
:10064000809313010895009B02C0019B38C000995C
:1006500036C0019934C082E08093130117C0109214
:1006600013010895019B02C0009B29C0019927C076
:10067000009925C084E08093130115C010921301E6
:100680000895823019F0843071F00895809100014E
:10069000803EA9F0880F8093000180911A01880F95
:1006A00080931A01089580910001883040F086956A
:1006B0008093000180911A01869580931A01089514
:1006C00080911E01823059F128F4882341F0813055
:1006D000D1F037C0833031F1843081F132C00299DA
:1006E00002C0039B4CC0029B06C0039904C081E07A
:1006F00080931E010895039B42C0029940C083E08D
:1007000080931E010895029B02C0039B38C002998A
:1007100036C0039934C082E080931E0117C0109246
:100720001E010895039B02C0029B29C0039927C0A4
:10073000029925C084E080931E0115C010921E010D
:100740000895823019F0843071F008958091070186
:10075000803EA9F0880F8093070180911B01880FCC
:1007600080931B01089580910701873041F08695A1
:100770008093070180911B01869580931B0108954A
:1007800080911D01813041F018F0823049F00CC099
:1007900081E080931D010DC082E080931D010BC09C
:1007A00081E080931D0105C0813019F0823021F471
:1007B00002C0299A08952998089520E030E090E039
:1007C000AC01022E02C0559547950A94E2F740FF0E
:1007D00002C0289A01C028982A9A2A982F5F3F4F72
:1007E0002830310569F7089504DF61E070E080E0AA
:1007F00090E0DDDC7CDC10921D0110921301109260
:100800001E01109214012B982C9880E180931A01FC
:1008100080931B0199E09093150190931C0193E044
:1008200090931F0180931601D3DC6894EE24E7F8BF
:10083000F12CBB24B394C12CD12CEADCE1DE40DFE7
:1008400000E011E0C0E0D0E0F80181918F018095D7
:10085000B4DFC7010C2E02C0959587950A94E2F784
:10086000ACDF8091170181111EC0B0921701219653
:10087000C830D10549F780911801909119018C3247
:1008800021E0920760F4209110012223E1F31092FD
:10089000100101969093190180931801CECFE1DCED
:1008A0008C2D9D2DF0CF6CDF6BDFDFCFEE0FFF1FA8
:1008B0000024001C0BBE0790F691E02D0994F894DB
:0208C000FFCF68
:0C08C200380000000000003801000000B9
:00000001FF
