S01700004763634170706C69636174696F6E312E737265635B
S113000045C0000060C000005EC000005CC000008D
S11300105AC0000058C0000056C0000054C0000080
S113002052C0000050C000004EC000004CC0000090
S11300304AC000006DC0000046C0000044C000007B
S113004042C0000040C000003EC000003CC00000B0
S11300503AC0000038C0000036C0000034C00000C0
S113006032C0000030C000002EC000002CC00000D0
S11300702AC0000028C0000026C0000024C00000E0
S113008022C0000020C000001EC0000011241FBEBA
S1130090CFEFD0E4DEBFCDBF11E0A0E0B1E0EEE3EE
S11300A0F3E000E00BBF02C007900D92AC30B10743
S11300B0D9F721E0ACE0B1E001C01D92A631B2074E
S11300C0E1F704D13AC19CCF8BE0809381008DE7A6
S11300D090E0909389008093880082E080936F0081
S11300E0109285001092840080910801909109017A
S11300F0A0910A01B0910B0180930C0190930D0122
S1130100A0930E01B0930F018FB780688FBF08953D
S11301101F920F920FB60F9211248F939F93AF9358
S1130120BF9380910C0190910D01A0910E01B091AB
S11301300F010197A109B10980930C0190930D015E
S1130140A0930E01B0930F01892B8A2B8B2B99F46A
S113015081E0809310018091080190910901A091A0
S11301600A01B0910B0180930C0190930D01A093AF
S11301700E01B0930F01BF91AF919F918F910F909A
S11301800FBE0F901F90189560930801709309019A
S113019080930A0190930B0160930C0170930D01FD
S11301A080930E0190930F01089584B1876084B900
S11301B081B18F6081B9089580911101823059F124
S11301C028F4882341F08130D1F037C0833031F1F5
S11301D0843081F132C0009902C0019B42C0009B6F
S11301E006C0019904C081E0809311010895019B28
S11301F038C0009936C083E0809311010895009BB4
S113020002C0019B2EC000992CC001992AC082E033
S11302108093110117C0109211010895019B02C02F
S1130220009B1FC001991DC000991BC084E08093EE
S1130230110110C0109211010895823019F0843018
S113024049F0089580910001803E59F0880F809311
S11302500001089580910001883018F086958093FC
S11302600001089580911501813041F018F0823029
S113027049F00CC081E0809315010DC082E08093A9
S113028015010BC081E08093150105C0813019F080
S1130290823021F402C0299A08952998089520E013
S11302A030E090E0AC01022E02C0559547950A94C7
S11302B0E2F740FF02C0289A01C028982A9A2A9897
S11302C02F5F3F4F2830310569F708956EDF61E0F5
S11302D070E080E090E058DFF7DE10921501109294
S11302E011016894EE24E7F8F12CDD24D39464DF43
S11302F000E011E0C0E0D0E0F80181918F01809529
S1130300CEDFC7010C2E02C0959587950A94E2F7BB
S1130310C6DF8091130181110DC0D0921301219683
S1130320C830D10549F7809110018823E1F3109278
S11103301001DDCF97DF96DFF0CFF894FFCFFA
S10F033E3800000000000038010000003E
S9030000FC
