:1000000059C0000074C0000072C0000070C0000041
:100010006EC000006CC000006AC0000068C0000034
:1000200066C0000064C0000062C0000060C0000044
:100030005EC0000081C000005AC0000058C000002F
:1000400056C0000054C0000052C0000050C0000064
:100050004EC000004CC000004AC0000048C0000074
:1000600046C0000044C0000042C0000040C0000084
:100070003EC000003CC000003AC0000038C0000094
:1000800036C0000034C0000032C00000300134012E
:10009000380161012202F2018A01C201B002B202FA
:1000A0006402B3026C027602A402980280028C02FF
:1000B000B002B20211241FBECFEFD0E4DEBFCDBF2D
:1000C00011E0A0E0B1E0EEE2F8E000E00BBF02C01A
:1000D00007900D92AC30B107D9F721E0ACE0B1E068
:1000E00001C01D92AC31B207E1F739D39EC388CF6E
:1000F0008BE0809381008DE790E09093890080935E
:10010000880082E080936F00109285001092840036
:100110008091080190910901A0910A01B0910B0111
:1001200080930C0190930D01A0930E01B0930F01E9
:100130008FB780688FBF08951F920F920FB60F92EE
:1001400011248F939F93AF93BF9380910C01909153
:100150000D01A0910E01B0910F010197A109B10904
:1001600080930C0190930D01A0930E01B0930F01A9
:10017000892B8A2B8B2B99F481E08093100180913D
:10018000080190910901A0910A01B0910B0180939F
:100190000C0190930D01A0930E01B0930F01BF913C
:1001A000AF919F918F910F900FBE0F901F90189558
:1001B000609308017093090180930A0190930B01E9
:1001C00060930C0170930D0180930E0190930F01C9
:1001D000089580911B0190E0FC01E050FF4F2091B9
:1001E0001301208320911201223021F03CEF320FC5
:1001F000323028F4FC01E050FF4F11820895233083
:1002000019F02650223020F4FC01E150FF4F1082FB
:100210000895049B18C01092110110921A011092B7
:1002200012012B982C9880E180931701809318017C
:1002300093E090931B0180931301CBDFE0E0F1E0AA
:1002400088E3808387830895E09112018E2F90E0E8
:100250008A30910508F02EC1FC01EA5BFF4FDCC239
:1002600081E080931201089582E08093120134C1ED
:1002700080911B01823008F02FC1209117019091CD
:100280001301291304C083E0809312012FC1622F50
:1002900070E0492F50E0440F551F6417750721F493
:1002A00086E0809312012CC19695291304C087E043
:1002B0008093120131C181110FC189E08093120135
:1002C00051C180911B01863008F410C1873020F0A5
:1002D00088E08093120144C190911801809113012C
:1002E000981304C082E080931201F6C0492F50E0B9
:1002F000282F30E0220F331F4217530721F484E0E8
:100300008093120121C186959813F0C085E08093F7
:1003100012010EC18091130188232CF090911B01D2
:10032000963008F4EDC090911B01973020F088E0E2
:100330008093120115C1963021F087E0809312015D
:10034000EBC090911801492F50E0282F30E0B901FF
:10035000660F771F660F771F4617570721F484E053
:1003600080931201F1C0220F331F4217530721F46B
:1003700085E080931201DCC08913C2C084E08093C1
:100380001201E2C080911301823028F090911B018C
:10039000963008F4C1C090911B01973020F088E09E
:1003A00080931201DDC0963021F086E08093120127
:1003B000A7C090911801282F26952695291304C0CF
:1003C00085E080931201B4C0282F2695921304C0B3
:1003D00084E080931201B8C089139EC084E08093AA
:1003E0001201B2C080911301823028F090911B015C
:1003F000923008F09DC090911B01911104C089E0DA
:1004000080931201AFC0913021F084E080931201FB
:100410009BC090911701282F26952695291304C07B
:1004200087E08093120178C0282F2695921304C08C
:1004300086E08093120164C089137AC086E08093BD
:1004400012015EC08091130188232CF090911B0152
:10045000923008F079C090911B01911104C089E09D
:10046000809312017FC0913021F085E080931201CA
:100470005FC090911701492F50E0282F30E0B9015B
:10048000660F771F660F771F4617570721F486E020
:100490008093120135C0220F331F4217530721F4F6
:1004A00087E08093120138C089134EC086E08093A4
:1004B000120126C08E2F90E08A30910508F053C0BB
:1004C000FC01E05BFF4FA8C183E080931B0180E14A
:1004D000809313017ECE089580911B0181508093FB
:1004E0001B0180E18093130174CE089580911B015C
:1004F0008F5F80931B0180E1809313016ACE089582
:1005000080911B018F5F80931B0180911301880FE5
:10051000809313015ECE089580911B018F5F8093BD
:100520001B018091130186958093130152CE08958B
:1005300080911B01815080931B018091130186954E
:100540008093130146CE089580911B0181508093C2
:100550001B0180911301880F809313013ACE0895F7
:100560002B9A08952C9A089584B18F6184B981B132
:100570008F6181B9089580911101823059F128F479
:10058000882341F08130D1F037C0833031F184309D
:1005900081F132C0009902C0019B4CC0009B06C093
:1005A000019904C081E0809311010895019B42C02C
:1005B000009940C083E0809311010895009B02C020
:1005C000019B38C0009936C0019934C082E0809305
:1005D000110117C0109211010895019B02C0009BE8
:1005E00029C0019927C0009925C084E0809311019A
:1005F00015C0109211010895823019F0843071F005
:10060000089580910001803EA9F0880F8093000139
:1006100080911701880F8093170108958091000140
:10062000883040F08695809300018091170186956F
:1006300080931701089580911A01823059F128F4AE
:10064000882341F08130D1F037C0833031F18430DC
:1006500081F132C0029902C0039B4CC0029B06C0CC
:10066000039904C081E080931A010895039B42C05E
:10067000029940C083E080931A010895029B02C052
:10068000039B38C0029936C0039934C082E080933E
:100690001A0117C010921A010895039B02C0029B11
:1006A00029C0039927C0029925C084E080931A01CC
:1006B00015C010921A010895823019F0843071F03B
:1006C000089580910701803EA9F0880F809307016B
:1006D00080911801880F8093180108958091070177
:1006E000873041F0869580930701809118018695A7
:1006F00080931801089580911901813041F018F01C
:10070000823049F00CC081E0809319010DC082E075
:10071000809319010BC081E08093190105C08130DD
:1007200019F0823021F402C0299A08952998089579
:1007300020E030E090E0AC01022E02C055954795D4
:100740000A94E2F740FF02C0289A01C028982A9A2A
:100750002A982F5F3F4F2830310569F7089504DF4D
:1007600061E070E080E090E023DDC2DC10921901CE
:100770001092110110921A01109212012B982C98CC
:1007800080E1809317018093180193E090931B01FF
:10079000809313011EDD6894EE24E7F8F12CBB244E
:1007A000B394C12CD12C35DDE6DE45DF00E011E04D
:1007B000C0E0D0E0F80181918F018095B9DFC701D9
:1007C0000C2E02C0959587950A94E2F7B1DF8091CF
:1007D000140181111EC0B09214012196C830D105B8
:1007E00049F780911501909116018C3221E0920712
:1007F00060F4209110012223E1F310921001019680
:100800009093160180931501CECF1EDD8C2D9D2D6A
:10081000F0CF71DF70DFDFCFEE0FFF1F0024001C71
:0E0820000BBE0790F691E02D0994F894FFCFDF
:0C082E003800000000000038010000004D
:00000001FF
