:1000000045C0000060C000005EC000005CC0000091
:100010005AC0000058C0000056C0000054C0000084
:1000200052C0000050C000004EC000004CC0000094
:100030004AC000006DC0000046C0000044C000007F
:1000400042C0000040C000003EC000003CC00000B4
:100050003AC0000038C0000036C0000034C00000C4
:1000600032C0000030C000002EC000002CC00000D4
:100070002AC0000028C0000026C0000024C00000E4
:1000800022C0000020C000001EC0000011241FBEBE
:10009000CFEFD0E4DEBFCDBF11E0A0E0B1E0ECE8EF
:1000A000F2E000E00BBF02C007900D92A431B1074F
:1000B000D9F721E0A4E1B1E001C01D92AB31B20754
:1000C000E1F7ADD0E1C09CCF8BE0809381008DE75C
:1000D00090E0909389008093880082E080936F0085
:1000E000109285001092840080911001909111016E
:1000F000A0911201B0911301809314019093150106
:10010000A0931601B09317018FB780688FBF089531
:100110001F920F920FB60F9211248F939F93AF935C
:10012000BF938091140190911501A0911601B09197
:1001300017010197A109B10980931401909315014A
:10014000A0931601B0931701892B8A2B8B2B99F45E
:1001500081E0809318018091100190911101A0918C
:100160001201B09113018093140190931501A09393
:100170001601B0931701BF91AF919F918F910F908E
:100180000FBE0F901F90189560931001709311018E
:1001900080931201909313016093140170931501E1
:1001A0008093160190931701089584B1876084B9F4
:1001B000089A099A089580911A01813041F018F047
:1001C000823049F00CC081E080931A010DC082E0BA
:1001D00080931A010BC081E080931A0105C0813021
:1001E00019F0823021F402C0299A089529980895BF
:1001F00020E030E090E0AC01022E02C0559547951A
:100200000A94E2F740FF02C0289A01C028982A9A6F
:100210002A982F5F3F4F2830310569F70895C5DFD1
:1002200061E070E080E090E0AFDF4EDF10921A01F5
:100230006894EE24E7F8F12CDD24D39400E011E07B
:10024000C0E0D0E0F80180810E5F1F4F8095D0DFC5
:10025000C7010C2E02C0959587950A94E2F7C8DF76
:100260008091190181110DC0D09219012196C830D9
:10027000D10541F7809118018823E1F3109218010C
:0C028000DDCF99DF98DFF0CFF894FFCFBE
:10028C003800240024002400000042003C00380008
:04029C00010000005D
:00000001FF
